:020000040000FA
:10000000E82B0010A90B0000B10B0000B30B00009F
:10001000B50B0000B70B0000B90B0000000000009A
:10002000000000000000000000000000BB0B00000A
:10003000BD0B000000000000BF0B00003D250000CC
:10004000C30B0000C30B0000C30B0000C30B000078
:10005000C30B0000C30B0000C30B0000C30B000068
:10006000C30B0000C30B0000C30B0000C30B000058
:10007000C30B000000000000C30B0000C30B000016
:10008000C30B0000C30B0000C30B0000C30B000038
:10009000C30B0000C30B0000C30B0000C30B000028
:1000A000C30B0000C30B0000C30B0000C30B000018
:1000B000C30B0000C30B0000C30B0000C30B000008
:1000C000C30B0000C30B0000C30B0000C30B0000F8
:1000D000C30B0000C30B0000C30B0000C30B0000E8
:1000E000C30B000000F002F800F060F80AA090E8EE
:1000F000000C82448344AAF10107DA4501D100F0E3
:1001000055F8AFF2090EBAE80F0013F0010F18BF4F
:10011000FB1A43F001031847F86600001867000057
:100120000A4410F8014B14F00F0508BF10F8015BEA
:10013000240908BF10F8014B6D1E05D010F8013BD3
:100140006D1E01F8013BF9D1641E03D0641E01F855
:10015000015BFBD19142E4D37047000000230024EF
:1001600000250026103A28BF78C1FBD8520728BFC7
:1001700030C148BF0B607047642903F0F5817529D1
:1001800003F0F281002070471FB503F0B3FD0400B7
:100190000020002105F018F8401C606000200021BC
:1001A00004F0FCFFE0601FBD10B510BD03F07DFD45
:1001B0001146FFF7E9FF02F0DAF804F029F803B47A
:1001C000FFF7F2FF03BC04F009FB0000F7480068EA
:1001D00000F48070002870D1F4480830006800F006
:1001E000010068BBF148006800F01F0008B900205A
:1001F00006E0EE48006800F01F00ED49B1FBF0F0AA
:10020000EC490860E948A430006800F01F0008B914
:10021000002007E0E548A430006800F01F00E44932
:10022000B1FBF0F0E4490860E048001F006800F00E
:100230000100401CDE49B1FBF0F0E0490860E1E05C
:10024000DA489C30006800F0400038B90020D949F5
:100250000860D9490860D9490860D3E0D3480068EC
:1002600000F01F0008B9002006E0D048006800F048
:100270001F00CF49B1FBF0F0CE490860CB48A43055
:10028000006800F01F0008B9002007E0C748A4304C
:10029000006800F01F00C649B1FBF0F0C6490860D5
:1002A000C248001F006800F00100401CC049B1FBBB
:1002B000F0F0C2490860A5E0FFE7BC487C38006860
:1002C00000F4807038B90020BA490860BA49086063
:1002D000BA49086096E0B5480830006800F00100AF
:1002E000F0BBB248006800F01F0008B900200EE023
:1002F000AE487C38006800F01F00401CAC49484301
:10030000AF49D1F8041101F01F01B0FBF1F0A94988
:100310000860A648A430006800F01F0008B900205B
:100320000EE0A2487C38006800F01F00401CA04985
:100330004843A349D1F8A81101F01F01B0FBF1F027
:100340009D49086099487C38006800F01F00401CF7
:10035000974948439A49D1F8001101F0010100E0A2
:1003600005E0491CB0FBF1F0944908604AE08F4871
:100370009C30006800F0400038B900208D490860CA
:100380008D4908608D4908603CE08848006800F0AD
:100390001F0008B900200EE084487C38006800F097
:1003A0001F00401C824948438549D1F8041101F0DF
:1003B0001F01B0FBF1F07F4908607C48A430006861
:1003C00000F01F0008B900200EE078487C38006873
:1003D00000F01F00401C764948437949D1F8A81124
:1003E00001F01F01B0FBF1F0734908606F48001F76
:1003F000006800F00100401C6E490968B1FBF0F094
:100400006E4908606948001D006800F48070C8B338
:100410006648001D006800F01F0020B1042806D0C7
:10042000062830D104E00020664908602FE000BFB4
:100430005E480830006800F0010088B15B487C38F5
:10044000006800F01F00401C594948435C49D1F83E
:10045000081101F01F01B0FBF1F05A49086010E0EB
:1004600052487C38006800F01F00401C5049484347
:100470005349D1F8081101F01F01B0FBF1F05149C7
:10048000086004E004E000204E49086000BF24E05A
:100490004648001D006800F40070D8B14348083099
:1004A000006800F0010050B140485C38006800F07E
:1004B0001F00401C3E494843424908600DE03B484C
:1004C0007C38006800F01F00401C394948433D4912
:1004D000086002E000203B490860704746F23A009D
:1004E00037490860212031499C31086000BF2F48FE
:1004F0009C30006800F040000028F8D001202B4913
:100500000831086009202E49C1F8840001202C49D7
:1005100080310860AA202549783908605520086094
:1005200000BF22487C38006800F480600028F8D0C2
:1005300023201E496039086001202149C1F8A0002C
:10054000AA201A495839086055201D49C1F8AC0045
:1005500000BF16485C38006800F480600028F8D0BE
:1005600040F201101149086040F201201449C1F81D
:10057000080101200D49091F086002200B49A43120
:100580000860114809494039086088150C49C1F8CC
:10059000C8010846D0F8B00140F003000349AC316F
:1005A00008600020094908607047000004C10F403E
:1005B000001BB7000000001004000010080000102D
:1005C00000C00F400C000010DE87280408ED00E09A
:1005D0000146081240EA012080B2704710B540F48D
:1005E0008073FE4CA3622346D962002206E0FB4BD7
:1005F0005B6B03F0010303B903E0521CB2F5A02FBB
:10060000F5D300BF10BD014641F48070F34B9862F2
:1006100001205862002206E0F048406B00F0010023
:1006200000B903E0521CB2F5A02FF5D300BF0020A3
:10063000EA4B58621846006B80B27047F8B5002745
:10064000E748006840F08040E549C439C1F8C4007B
:10065000E448D0F8800020F00700E249C1F88000AB
:100660000846D0F8800040F00100C1F8800008463C
:10067000D0F8840020F00700C1F884000846D0F8C4
:10068000840040F00100C1F884000846D0F89000D2
:1006900020F00700C1F890000846D0F8900040F024
:1006A0000100C1F890000846D0F8A00020F0070033
:1006B000C1F8A0000846D0F8A00040F00100C1F841
:1006C000A0000846D0F8A40020F00700C1F8A4005C
:1006D0000846D0F8A40040F00100C1F8A400084684
:1006E000D0F8A80020F00700C1F8A8000846D0F80C
:1006F000A80040F00100C1F8A8000846D0F8B800F2
:1007000020F00700C1F8B8000846D0F8B80040F063
:100710000100C1F8B8000846D0F8BC0020F007007E
:10072000C1F8BC000846D0F8BC0040F00100C1F898
:10073000BC000846D0F8C00020F00700C1F8C00097
:100740000846D0F8C00040F00100C1F8C0000846DB
:10075000D0F8C40020F00700C1F8C4000846D0F863
:10076000C40040F001009F49C43108604FF44F407D
:100770009A49086078209C4908606420009002E053
:100780000098401E009000980028F9D1022093495B
:100790000860302048604001486143F20F700861F2
:1007A0001220C86048F23C0008626420009002E019
:1007B0000098401E009000980028F9D13C208749FD
:1007C00008624FF43070884908604FF400410020FF
:1007D000FFF704FF002000900AE00020FFF713FF5E
:1007E000044604F4004000B906E00098401C009064
:1007F0000098B0F5801FF0D300BF0220FFF703FF81
:1008000006460320FFF7FFFE05464FF6F07028402E
:1008100040EA06407549884201D1074608E04FF694
:10082000F070284040EA06407149884200D10746EE
:10083000BFB14FF440510020FFF7D0FE00200090E0
:100840000AE00120FFF7DFFE044604F0200000B1BB
:1008500006E00098401C00900098B0F5801FF0D38F
:1008600000BF002000900AE00120FFF7CCFE044604
:1008700004F0040000B106E00098401C00900098CD
:10088000B0F5803FF0D300BFA7F5F820F03840B3B3
:1008900058490844002849D11020FFF7B4FE044607
:1008A00004F0040070B14D48406840F001004B492D
:1008B00048604D48006840F48060C1F80001152090
:1008C000886002E012204549886004F0020018B1F7
:1008D00000204249886103E04FF480703F498861FD
:1008E00024E01F20FFF78FFE044604F0100070B1D3
:1008F0003A48406840F00100384948603A4800688A
:1009000040F48060C1F800011520886002E01220E8
:100910003249886004F0080020B14FF480702F49FC
:10092000886102E000202D49886100BF00BF4FF4BC
:1009300081702A4908644FF44170486440F20750BE
:100940008864002000901FE0009800EB4000400207
:1009500000F1005058300099C90001F100510860C1
:1009600025490098C00000F1005041600021009826
:10097000C00000F1005001620098C00000F100507A
:1009800041620098401C009000980428DCD34FF08E
:10099000005015490831086018481049C1F80C0189
:1009A000032011491031086000200C49C1F81801DA
:1009B00000902DE012494FF4C062009802FB001134
:1009C000C00000F10050016400210098C00000F157
:1009D000005041640098800014E0000000400820AE
:1009E000C4C00F4000C0024000410820905C0020BD
:1009F000F0C00700606407E0FF05008020000020D1
:100A00005818002000F1005001650098401C00902B
:100A100000980228CED35E485E4908605C481030DA
:100A20005D49C1F8200101205A49083108600020C1
:100A3000091D086022205749E43108608820574981
:100A400008604FF6FF70091D08605348D0F8000198
:100A500040F003005049C1F800010846006840F02A
:100A600001000860F8BD4E49096808804C490968D2
:100A7000891C4B4A1160704770B504460B462646E8
:100A8000581C4FF6FE7100EA010304E036F8020B31
:100A9000FFF7E9FF9B1E002BF8D13E480C3005689C
:100AA000681C0546022800D100253A480C30056034
:100AB00070BD3C48006800883A490968891C394A79
:100AC0001160704710B537490968088835490968C9
:100AD000891C344B1960FFF77BFD0446204610BD8E
:100AE00030B505460B462C4605E0FFF7E2FF24F83B
:100AF000020B981E83B2012BF7DC13B1FFF7D9FF6D
:100B0000207030BD00B5034603E0FFF7D2FF981E0A
:100B100083B2012BF9DC00BD1E4A0C321168CA00F9
:100B200002F10052126C1E4B1A6040F08043CA0062
:100B300002F100525364704701207047154A121F9A
:100B40001168CA0002F10052128CC2F30A02D21ECE
:100B500090B2CA0002F100521268124B1A6070473C
:100B60000C49091F0868411C0846042900D10020CF
:100B70000849091F08607047064808380068064998
:100B8000D1F81811884201D0012070470020FCE7FD
:100B9000400000201C41082000400820E44F0820AD
:100BA0001400001010000010094880470948004751
:100BB000FEE7FEE7FEE7FEE7FEE7FEE7FEE7FEE70D
:100BC000FEE7FEE704480549034A054B704700006D
:100BD000DD040000E5000000E8270010E82B00100D
:100BE000E827001070B504462146FC4802F0A1FD3C
:100BF000051E07D0204602F0DAFD0544284602F023
:100C00008BFD70BD4FF0FF30FBE770B502460B4621
:100C10004FF6FF7000210024002514E0565C704060
:100C2000002400250CE000F001060EB1012500E0D3
:100C300000254008012D02D14AF201067040641CD3
:100C4000082CF0D3491C9942E8D370BD704770B5A9
:100C500005460E46002403E0285D02F02DFC641CCE
:100C6000B442F9DB70BD70B505460E46002403E0C2
:100C700002F02CFC2855641CB442F9DB70BD2DE950
:100C8000F04104462146D54802F053FD051E0BD025
:100C9000204602F08CFD0544284604F003FA06467F
:100CA00004F0A8FABDE8F081CD48FBE7CD48007D0F
:100CB00000F0010050B1CB480078CB49CB4A127804
:100CC0008854CA480078401CC8490870C748007852
:100CD000082804D10020C549087001207047002071
:100CE000FCE730B5002357E0BE48007A40F003002F
:100CF000BC490872BE4810F833000870BC4800EBCD
:100D0000C30040780870BA4800EBC30080780870D0
:100D1000B74800EBC300C0780870B54800EBC300CB
:100D200000790870B24800EBC30040790870B04801
:100D300000EBC30080790870AD4800EBC300C079B8
:100D40000870002505E0FFF7B1FF012800D103E09E
:100D50006D1CA8488542F6DB00BFA648854212D02C
:100D6000002409E0A24800EBC300005D9E49095D34
:100D7000884200D002E0641C082CF3DB00BF082C82
:100D800003D0002030BD0020FCE7002500E06D1CF2
:100D9000B5F57A7FFBDB5B1C602BA5DB0120F1E75F
:100DA00030B5002357E08F48007A40F003008D49AA
:100DB0000872914810F8330008708F4800EBC300A8
:100DC000407808708C4800EBC300807808708A482F
:100DD00000EBC300C0780870874800EBC3000079BF
:100DE0000870854800EBC30040790870824800EB2A
:100DF000C30080790870804800EBC300C079087098
:100E0000002505E0FFF752FF012800D103E06D1C2B
:100E100078488542F6DB00BF7648854212D0002430
:100E200009E0754800EBC300005D6F49095D884229
:100E300000D002E0641C082CF3DB00BF082C03D0B8
:100E4000002030BD0020FCE7002500E06D1CB5F55A
:100E50007A7FFBDB5B1C402BA5DB0120F1E730B583
:100E6000002357E05F48007A40F003005D490872B4
:100E7000624810F833000870604800EBC300407807
:100E800008705E4800EBC300807808705B4800EB98
:100E9000C300C0780870594800EBC300007908709F
:100EA000564800EBC30040790870544800EBC3007B
:100EB00080790870514800EBC300C07908700025A4
:100EC00005E0FFF7F3FE012800D103E06D1C49485F
:100ED0008542F6DB00BF4748854212D0002409E076
:100EE000464800EBC300005D3F49095D884200D0E1
:100EF00002E0641C082CF3DB00BF082C03D00020A8
:100F000030BD0020FCE7002500E06D1CB5F57A7FC0
:100F1000FBDB5B1C602BA5DB0120F1E72DE9F04F2B
:100F20008FB00027BB460025A946AA4600200E9098
:100F30000D9006903248007800F00200002801F081
:100F40000D822F48007800F00400002801F07C8119
:100F50002C480078002841F072812BA0FFF742FE58
:100F600083462BA0FFF73EFE0546BBF1050F06D1D9
:100F700029A0FFF784FE0C900120069005E026A032
:100F8000FFF730FE07460020069025A0FFF72AFE57
:100F9000814625A0FFF726FE8246BBF1060F0FD142
:100FA00023A0FFF71FFE0E9023A0FFF71BFE0D905E
:100FB00023A0FFF764FE0B9023A0FFF760FE0A90CA
:100FC0000BF10100002801F03681681C0028FAD0DE
:100FD000BBF1080F81F02A813AE00000000D0010FB
:100FE00000FF7FC7008009406C0A0010740A0010DF
:100FF0005D02001040420F005D0500105D0700100B
:101000005C000010680A0010747970653D000000F3
:101010006E756D3D0000000076616C3D00000000C3
:10102000776F726B3D0000006275733D0000000039
:101030007031636F64653D007032636F64653D00BD
:10104000703176616C3D0000703276616C3D00005D
:10105000DFE81BF0EC080800F301FD02EE03890550
:101060007E08EB08781C38B909F1010020B9F64870
:10107000F649086001F0DEB8012D01DB602D04DDCA
:10108000F1485830F1490860F4E7002F02DBB7F56A
:10109000805F06DB781C20B1EB48A830EB49086084
:1010A000E8E7B9F1FF3F02DBB9F1010F03DDE8A08A
:1010B000E6490860DEE700241CE004EBC401EE48CA
:1010C0000844007A012814D104EBC401EA48405CCA
:1010D00001280ED1681E00EBC001E7480844007AE1
:1010E000012806D1681EA04203D0E448D749086011
:1010F00002E0641C602CE0DB00BF602C00D0B9E78C
:10110000681EDF4911F810008DF81C00681E01EB05
:1011100040004078401EC0B28DF81D009DF81D00B3
:10112000102806DA9DF81C0040F040008DF81C00E5
:1011300005E09DF81D001038C0B28DF81D00B9F112
:10114000010F06D19DF81D0040F080008DF81D00B4
:1011500008E0B9F1000F05D19DF81D0040F04000F6
:101160008DF81D00781C08B94FF6FF77F8B28DF89E
:101170001E00380A8DF81F00062107A8FFF745FD5D
:10118000804608F0FF008DF822004FEA18208DF805
:101190002300082107A8FFF75AFD002605E0FFF706
:1011A00085FD012800D103E0761CB6488642F6DBB7
:1011B00000BFB448864254D0002407E007A8005D71
:1011C000B149095D884200D002E0641C082CF5DBBF
:1011D00000BF082C41D1ADA09C4908604FF6FF70BC
:1011E000874230D0681E00EBC002A3481044A0F82C
:1011F0000570691E01EBC1029F491144B1F8053029
:10120000691EA34A32F91110581A04F065FE0090C5
:10121000681EA04A52F82010009804F09BFD01902F
:1012200004F00AFD0022E306CDE9020104F01AFCF5
:10123000CDE9040103F0DEFF691E01EBC1028E4916
:101240001144C1F8010009F1010068B1681E00EB0A
:10125000C002894800F8029006E08FA07B49086030
:1012600002E098A0794908600AF1010000287DD0C9
:10127000BAF1010F23D100241BE004EBC4017E4826
:101280000844007A012813D104EBC4017A48405C79
:1012900001280DD1681E00EBC0017748405C012891
:1012A00006D1681EA04203D091A06849086002E000
:1012B000641C602CE1DB00BF602C00D0DAE6681E05
:1012C0006F4911F81000C0B9681E01EB400040786A
:1012D000401E914911F810008DF81C00681E6849E5
:1012E00001EB40004078401E8B4901EB4000407804
:1012F000401EC0B28DF81D0042E0681E604911F822
:10130000100001281AD1681E01EB40004078401EF1
:101310008149403111F810008DF81C00681E5849B1
:1013200001EB40004078401E7B49403101EB40001A
:101330004078401EC0B28DF81D0021E0681E504963
:1013400011F8100002281BD1681E01EB4000407804
:10135000401E7149803111F810008DF81C00681E84
:10136000474901EB40004078401E00E064E06A49D4
:10137000803101EB40004078401EC0B28DF81D0066
:101380009DF81D00102806DA9DF81C0040F0400072
:101390008DF81C0005E09DF81D001038C0B28DF8D6
:1013A0001D000AF0FF008DF81E00062107A8FFF7B8
:1013B0002CFC804608F0FF008DF822004FEA182030
:1013C0008DF82300002600E0761CB6F57A7FFBDB63
:1013D000082107A8FFF73BFC002605E0FFF766FCA5
:1013E000012800D103E0761C26488642F6DB00BFC8
:1013F000244886421DD0002407E007A8005D22494A
:10140000095D884200D002E0641C082CF5DB00BFB7
:10141000082C0AD11DA00D490860681E00EBC0020F
:101420001548104480F808A006E03CA00749086071
:1014300002E045A0054908601CE6012D01DB402DB6
:1014400000DD97E09AE00000CC6400001800001076
:101450004B6F6D616E6461206E65207679706F6C84
:101460006E656E61212027776F726B2720203020F8
:101470002F20312100000000A82100100866000084
:101480005D00001040420F006C0A00104F4B00003E
:10149000C8260010482500104B6F6D616E646120F6
:1014A0006E65207679706F6C6E656E6121204D6F70
:1014B00064756C206E65206F747665636861657411
:1014C000203100004B6F6D616E6461206E65207687
:1014D00079706F6C6E656E6121204D6F64756C2044
:1014E0006E65206F747665636861657420320000F4
:1014F0004B6F6D6D75746163697961206E61206FEA
:10150000627368757975207368696E75202D207314
:10151000626F6921000000009D0100104B6F6D613A
:101520006E6461206E65207679706F6C6E656E6199
:1015300021204D6F64756C206E65206F7476656335
:1015400068616574203300004B6F6D616E646120CB
:101550006E65207679706F6C6E656E6121204D6FBF
:1015600064756C206E65206F747665636861657460
:1015700020340000E7A0F04908607BE5002F01DB84
:10158000012F03DDEDA0EC49086073E5681EF44906
:1015900011F810008DF81C00681E01EB4000407827
:1015A000401EC0B28DF81D009DF81D00102806DAFF
:1015B0009DF81C0040F040008DF81C0005E09DF8EF
:1015C0001D001038C0B28DF81D00F8B28DF81E0055
:1015D000062107A8FFF719FB804608F0FF008DF8E9
:1015E00022004FEA18208DF82300082107A8FFF7F2
:1015F0002EFB002605E0FFF759FB012800D103E090
:10160000761CD8488642F6DB00BFD64886421AD000
:10161000002407E007A8005DD349095D884200D097
:1016200002E0641C082CF5DB00BF082C07D1AFF2E8
:10163000A410C1490860681ECC490F5406E0CCA034
:10164000BD49086002E0D6A0BB49086012E5012D43
:1016500001DB602D03DDDEA0B74908600AE5002F3D
:1016600001DB012F03DDE3A0B349086002E5012F90
:1016700023D100241BE004EBC401E7480844007AAE
:10168000012813D104EBC401E348405C01280DD1CB
:10169000681E00EBC001E048405C012806D1681ECE
:1016A000A04203D0DDA0A449086002E0641C602CC5
:1016B000E1DB00BF602C00D0DCE4681EE14911F8DA
:1016C0001000C0B9681E01EB40004078401EDE49A2
:1016D00011F810008DF81C00681EDA4901EB40007B
:1016E0004078401ED84901EB40004078401EC0B20F
:1016F0008DF81D0040E0681ED24911F81000012845
:101700001AD1681E01EB40004078401ECE4940319E
:1017100011F810008DF81C00681ECA4901EB40004A
:101720004078401EC849403101EB40004078401EDF
:10173000C0B28DF81D001FE0681EC24911F81000EC
:10174000022819D1681E01EB40004078401EBE49B6
:10175000803111F810008DF81C00681EB94901EBAA
:1017600040004078401EB849803101EB400040788D
:10177000401EC0B28DF81D009DF81D00102806DA2D
:101780009DF81C0040F040008DF81C0005E09DF81D
:101790001D001038C0B28DF81D00F8B28DF81E0083
:1017A000062107A8FFF731FA804608F0FF008DF800
:1017B00022004FEA18208DF82300002600E0761C56
:1017C000B6F57A7FFBDB082107A8FFF740FA002671
:1017D00005E0FFF76BFA012800D103E0761C6148B1
:1017E0008642F6DB00BF5F4886421DD0002407E03A
:1017F00007A8005D5C49095D884200D002E0641CD6
:10180000082CF5DB00BF082C0AD1AFF280304A4922
:101810000860681E00EBC0027F481044077206E0B3
:101820008AA04549086002E094A04349086021E489
:10183000012D01DB042D03DD9CA03F49086019E464
:10184000012D06D0022D42D0032D61D0042D06D1EA
:101850006FE1FFF746FA18B99DA03749086080E1AB
:10186000FFF79EFA18B985A03349086079E1FFF7C0
:10187000F6FA18B996A03049086072E1AFF2F43078
:101880002D490860002417E0002104EBC4026248DF
:101890001044A0F8051004EBC4025F48815404EB27
:1018A000C402104401724FF0404104EBC4025A4894
:1018B0001044C0F80110641C602CE5DB002403E038
:1018C00000212A480155641C402CF9DB49E1FFF74F
:1018D00008FA01281BD1AFF24C40174908600024D8
:1018E00012E0002104EBC4024B481044A0F805109C
:1018F00004EBC402484881544FF0404104EBC40259
:101900001044C0F80110641C602CEADBFBE0F7E037
:10191000FAE000004B6F6D616E6461206E652076A9
:1019200079706F6C6E656E612C20276E756D272047
:101930003120203634210000180000104B6F6D61FB
:101940006E6461206E65207679706F6C6E656E6175
:10195000202776616C2720302020312100000000F4
:101960001D01001040420F006C0A001008250010F5
:101970004B6F6D616E6461206E65207679706F6C5F
:101980006E656E6121204D6F64756C206E65206FF1
:10199000747665636861657420352100000000007D
:1019A0004B6F6D616E6461206E65207679706F6C2F
:1019B0006E656E6121204D6F64756C206E65206FC1
:1019C000747665636861657420362100000000004C
:1019D0004B6F6D616E6461206E65207679706F6CFF
:1019E0006E656E612120276E756D272031202039AC
:1019F000362100004B6F6D616E6461206E6520764C
:101A000079706F6C6E656E6121202776616C27207E
:101A10003020203121000000A82100104B6F6D6D97
:101A200075746163697961206E61206F6273687596
:101A30007975207368696E75202D2073626F692037
:101A4000322100005D0000109D0100104B6F6D61A0
:101A50006E6461206E65207679706F6C6E656E6164
:101A600021204D6F64756C206E65206F7476656300
:101A70006861657420372100000000004B6F6D61C4
:101A80006E6461206E65207679706F6C6E656E6134
:101A900021204D6F64756C206E65206F74766563D0
:101AA0006861657420382100000000004B6F6D6193
:101AB0006E6461206E65207679706F6C6E656E6104
:101AC0002120276E756D2720312020342100000051
:101AD0004B6F6D616E6461206E65207679706F6CFE
:101AE0006E656E6121204D6F64756C206E65206F90
:101AF0007476656368616574203921000000000018
:101B0000F2A0FE4908602CE0FFF74AF901280CD149
:101B1000AFF28860F9490860002403E00021F8482A
:101B20000155641C402CF9DB02E0F6A0F349086083
:101B300017E0FFF794F901280FD1AFF2B060EF4939
:101B40000860002406E0002104EBC402F9481044B8
:101B50000172641C602CF6DB02E0F7A0E749086024
:101B600000BF00BF66E30C9804F066F80022FE4B4D
:101B7000CDE9040103F084FD06D109F1010018B993
:101B8000FAA0DE49086055E3012D01DB602D04DD7C
:101B9000AFF2C410D94908604CE30C9804F04CF83B
:101BA00000224FF04043CDE9040103F0EBFD09D3DF
:101BB0000C9804F041F80022F54BCDE9040103F044
:101BC0001BFF0DD20C9804F037F80022E64BCDE94C
:101BD000040103F055FD03D0EEA0C849086029E3D5
:101BE000B9F1FF3F02DBB9F1010F03DDF3A0C349F7
:101BF00008601FE300241CE004EBC401CD48084446
:101C0000007A012814D104EBC401CA48405C0128C1
:101C10000ED1681E00EBC001C6480844007A0128B6
:101C200006D1681EA04203D0EEA0B449086002E0CD
:101C3000641C602CE0DB00BF602C00D0FAE20C9842
:101C400003F0FAFF00224FF08043CDE9000103F0DA
:101C500003FB0022EE4BCDE9020103F0CFFDCDE9FD
:101C6000040103F049FD0746002F00DA0027B7F50D
:101C7000805F01DB40F6FF77681EE64911F810002F
:101C80008DF81C00681E01EB40004078401EC0B279
:101C90008DF81D009DF81D00102806DA9DF81C0027
:101CA00040F040008DF81C0005E09DF81D00103844
:101CB000C0B28DF81D00B9F1010F06D19DF81D00CD
:101CC00040F080008DF81D0008E0B9F1000F05D14B
:101CD0009DF81D0040F040008DF81D000C9803F0A9
:101CE000ABFF0022A04BCDE9040103F0C9FC01D1F8
:101CF0004FF6FF77F8B28DF81E00380A8DF81F00F6
:101D0000062107A8FEF781FF804608F0FF008DF846
:101D100022004FEA18208DF82300082107A8FEF7BB
:101D200096FF002605E0FEF7C1FF012800D103E081
:101D3000761CB9488642F6DB00BFB74886423DD0E4
:101D4000002407E007A8005DB449095D884200D07F
:101D500002E0641C082CF5DB00BF082C2AD1AFF68A
:101D6000D400664908604FF6FF70874206D0681EAF
:101D700000EBC0026F481044A0F8057009F10100A3
:101D800028B1681E00EBC0026A4800F802900C9867
:101D900003F052FF0022744BCDE9040103F070FC04
:101DA0000FD0691E01EBC102624911440C98C1F8C1
:101DB000010006E09AA05149086002E0A4A04F4942
:101DC00008600AF1010000287ED0BAF1010F23D18A
:101DD00000241BE004EBC40156480844007A0128A3
:101DE00013D104EBC4015348405C01280DD1681E97
:101DF00000EBC0014F48405C012806D1681EA0429C
:101E000003D078A03D49086002E0641C602CE1DB4F
:101E100000BF602C00D00DE2681E7E4911F8100052
:101E2000C0B9681E01EB40004078401E944911F88B
:101E300010008DF81C00681E764901EB40004078C8
:101E4000401E8F4901EB40004078401EC0B28DF823
:101E50001D001FE1681E6F4911F8100001281AD1FA
:101E6000681E01EB40004078401E8549403111F862
:101E700010008DF81C00681E664901EB4000407898
:101E8000401E7F49403101EB40004078401EC0B207
:101E90008DF81D00FEE0681E5E4911F81000022852
:101EA00013D1681E01EB40004078401E7449803118
:101EB00011F810008DF81C00681E564901EB400017
:101EC0004078401E6E49DDE041E1E3E04B6F6D611B
:101ED0006E6461206E65207679706F6C6E656E61E0
:101EE00021204D6F64756C206E65206F747665637C
:101EF0006861657420313021000000001800001076
:101F0000082500104B6F6D616E6461206E65207650
:101F100079706F6C6E656E6121204D6F64756C20F9
:101F20006E65206F74766563686165742031310079
:101F300000000000A82100104B6F6D616E646120ED
:101F40006E65207679706F6C6E656E6121204D6FC5
:101F500064756C206E65206F747665636861657466
:101F60002031320000000000E0FFEFC04B6F6D61D8
:101F70006E6461206E65207679706F6C6E656E613F
:101F8000212076616C2020776F726B2100000000A9
:101F9000000020404B6F6D616E6461206E6520769D
:101FA00079706F6C6E656E6121202776616C2720D9
:101FB000202D322020382100000000004B6F6D6181
:101FC0006E6461206E65207679706F6C6E656E61EF
:101FD00021212027776F726B2720302020312100AC
:101FE000000000004B6F6D616E6461206E652076AD
:101FF00079706F6C6E656E61212053626F69206F1E
:102000006273686579207368696E79210000000049
:10201000000079405D00001040420F006C0A001083
:102020004B6F6D616E6461206E65207679706F6CA8
:102030006E656E6121204D6F64756C206E65206F3A
:1020400074766563686165742031330000000000B8
:102050004B6F6D616E6461206E65207679706F6C78
:102060006E656E6121204D6F64756C206E65206F0A
:102070007476656368616574203134000000000087
:102080009D010010803101EB40004078401EC0B23D
:102090008DF81D009DF81D00102806DA9DF81C0023
:1020A00040F040008DF81C0005E09DF81D00103840
:1020B000C0B28DF81D000AF0FF008DF81E00062149
:1020C00007A8FEF7A2FD804608F0FF008DF8220069
:1020D0004FEA18208DF82300002600E0761CB6F5A4
:1020E0007A7FFBDB082107A8FEF7B1FD002605E09B
:1020F000FEF7DCFD012800D103E0761CD1488642C2
:10210000F6DB00BFCF4886421ED0002407E007A8B8
:10211000005DCD49095D884200D002E0641C082CB6
:10212000F5DB00BF082C0BD1AFF6A040C749086013
:10213000681E00EBC002C648104480F808A006E004
:10214000C4A0C249086002E0CEA0C049086071E0A6
:102150000E98401CB0B10D98401C98B10B9803F03C
:102160006BFD0022D34BCDE9040103F089FA09D0BD
:102170000A9803F061FD0022CE4BCDE9040103F083
:102180007FFA03D1CCA0B149086053E0012D01DBF7
:10219000602D04DDAFF2C870AC4908604AE0DDE9AB
:1021A0000A0103F07DFF0590DDE90D12881A03F0A6
:1021B00093FE0490059903F0CDFD691ECC4A42F8C8
:1021C00021000E9803F0C7FA0022CA4BCDE90001A6
:1021D00003F0FEF800224FF08043CDE9020103F046
:1021E00041FCCDE9040103F005F809900B99099829
:1021F00003F056FF0090681EBD4A52F82010009868
:1022000003F082FE019003F017FD0022BA4BCDE9E6
:10221000020103F021F8CDE9040103F06DFA02B2E6
:10222000691EB64820F8112004E003E0B44887494D
:10223000086000BF03E0B2487C3084490860012098
:10224000B049087000F08AFAAF48007800F0080042
:1022500090B3AC48007801282ED1AC48007800F04B
:10226000010028B97948006801F0A1FAA84908607E
:10227000A7480068B0F5007F39D9A448007800F07D
:102280000100D0B92C22A349A34801F0AFFAA2481B
:102290002C304FF4EA726D49096801F0A7FA9C48A6
:1022A0000068A0F5EA709A4908606848006800F57F
:1022B000EA706649086013E056E04FF40072634824
:1022C0000168954801F092FA91480068A0F5007005
:1022D0008F4908605D48006800F500705B49086040
:1022E0004FF400708D49088000F03FFA2AE08848DA
:1022F000006838B38548007800F0010090B92C22BE
:102300008449854801F072FA83482C3080490A6874
:102310004E49096801F06AFA7D4800882C307F49EF
:1023200008800AE07A480268484801687A4801F063
:102330005DFA774800887949088000F016FA002095
:10234000734908607248006808B900F0E9F96F48FD
:10235000007840F001006D49087005E06B48007896
:1023600020F00100694908700FB0BDE8F08F01F05E
:1023700081F800F037F9002064490870502068495E
:10238000088014E06048007800F0010008B900F00F
:1023900038F900F032FF5C48007800F0010020B905
:1023A00000F02FF9002057490870FEF7B7FDE9E764
:1023B00070477CB559480088042800DA7CBD564C2B
:1023C000002537E02078412832D1607844282FD189
:1023D000E07825282CD1A07831281BD037280CD0C4
:1023E000382824D1FFF7E4FF064632464DA168465F
:1023F00001F07EF80098206019E04C484CA102687A
:10240000684601F075F8BDF8000020809DF80200D4
:10241000A0700CE047480068401C4649024608602E
:1024200045A1684601F064F80098206000BF00BF35
:10243000641C6D1C39480088C01EA842C2D800BF69
:10244000BCE7000040420F006C0A001018000010AA
:10245000A82100104B6F6D616E6461206E6520765F
:1024600079706F6C6E656E6121204D6F64756C20A4
:102470006E65206F74766563686165742031350020
:10248000000000004B6F6D616E6461206E65207608
:1024900079706F6C6E656E6121204D6F64756C2074
:1024A0006E65206F747665636861657420313600EF
:1024B00000000000E0FFEFC04B6F6D616E646120B3
:1024C0006E65207679706F6C6E656E61212020706C
:1024D00031636F64652C207032636F64652C2070EB
:1024E0003176616C2C20703276616C210000000026
:1024F00048250010009879400000E03FC8260010F1
:102500008C660000680A00105C00001020000010BB
:102510001C0000108C620000B60A00104C00001075
:102520004E0000102530346400000000640A0010E2
:1025300025337500600A00102534750010B5244855
:102540000068401C2249086022480068401C21495C
:1025500008601F480068642802D300201C490860F6
:102560001C480068142804D300201A49086000F0B1
:102570005DFF10BD30B5184800686422B0FBF2F171
:10258000B1F1807F01D301201DE021F07F40401E8A
:102590004FF0E022506150171F22002807DAD306BF
:1025A0001D0E0E4B00F00F04241F1D5503E0D30633
:1025B0001C0E0B4B1C5400BF00204FF0E02290611A
:1025C00007201061002008B100BFFEE730BD000009
:1025D000780A00107C0A00100000001018ED00E0DE
:1025E00000E400E010B5FFF7C5FFFEF727F8002074
:1025F000FE490870FE490870FE490870FE490870DF
:1026000010BDFC48007850B9F948007820F001006E
:10261000F74908700120F7490870F74908707047BA
:102620000020F64908700420F5490870F048007849
:1026300040F00400EE4908700846007840F00800B9
:102640000870704710B5FF220621EE4801F013F91B
:10265000EC48ED490A68C0F80620898841814FF4AA
:10266000C160E84988814FF48070C88108200882E1
:1026700040F2064048824FF4807088820846E24962
:102680000A68C0F8162089884183E0490968C16159
:10269000002101628184DE480088DC4909884840C5
:1026A000DC490988084040B9D9484088D749498859
:1026B0004840D8494988084028B1D248D6490968D5
:1026C000C0F8261004E0CF48D1490968C0F82610A8
:1026D0002A20D2490870C548007840F00200C3495A
:1026E000087010BD10B5C348007818B1C148007813
:1026F000012814D1BE48007840F00100BC490870A0
:102700000846007820F002000870FFF79BFF0020C9
:10271000C3490870FFF784FF0120B749087010BD56
:10272000B4480078012806D0022805D003280BD031
:10273000042811D109E000BF0020AE490870AC495F
:102740000870AD49087007E000BFA948007840F064
:102750001000A749087000BF00BF7047A648007866
:1027600020F00400A4490870704700B5A148007823
:10277000042803D09F480078072821D19E4800787C
:1027800000F00800E0B19C48007820F008009A4969
:102790000870A4480068A44909880844A149086051
:1027A000A14800883630A14908809048007840F060
:1027B00001008E490870042099490870FFF730FF26
:1027C00000BD1CB5FEF7BAF9994908800621684694
:1027D000FEF786F906219748FEF782F9BDF800005A
:1027E0004FF6FF71884209D1BDF80200884205D139
:1027F000BDF80400884201D101201CBD0020FCE787
:1028000010B58A4801888C48FEF736F910BD01469C
:10281000081240EA012080B2704770B505460B46A9
:10282000164600228EB179480088024477484088D5
:10283000024477480088024475484088024418469C
:10284000FFF7E5FF024402F5C0622C4604E034F8CD
:10285000021B0A44981E83B2012BF8DC0BB12078CE
:10286000024402E090B200EB1242100C0028F9D1B1
:10287000D04380B270BD0A0E00F8012B0A0C00F89C
:10288000012B0A0A00F8012B017070470A1200F8A8
:10289000012B0170704700B5674868490A680260FB
:1028A0008988818058490A68C0F806208988418152
:1028B00008206149888141F24500C8815A48008852
:1028C000283081B25C481030FFF7E0FF00205A4901
:1028D000488288824FF4C860C88200200883084676
:1028E0004A490968C0F81A1049490968C0F81E1019
:1028F000002214210E30FFF790FF4F490883504803
:1029000001884D482230FFF7C1FF4E4801884A48F0
:102910002430FFF7BBFF4C48016847482630FFF7DB
:10292000AAFF4A48016844482A30FFF7A4FF41F251
:1029300050004149C88501200886002048868886C5
:1029400039480088143081B201223B482230FFF719
:1029500064FF3949488600BD10B5304801782948E0
:10296000FEF78AF810BD10B50446264833490A68B8
:1029700002608988818024490A68C0F80620898815
:10298000418108201F49888141F24500C88104F037
:10299000020018B14FF43050088203E04FF4205089
:1029A0001849088200201749488288824FF4C8607D
:1029B000C88200200883084614490968C0F81A1024
:1029C00013490968C0F81E10002214210E30FFF7C9
:1029D00024FF0C4908831A4801880A482230FFF76F
:1029E00055FF184801880748243031E0470000109F
:1029F00048000010210000105C000010340000109E
:102A000035000010B60C001065670000BA620000C7
:102A100058000010BE620000C262000046000010B4
:102A2000220000102C0000104C0000104400001088
:102A30003600001038000010800A0010520000100C
:102A40004E00001050000010280000103000001050
:102A5000FFF71CFFF7480168F748FFF70CFFF7483E
:102A60000168F548001DFFF706FF0120F2492639ED
:102A7000088600204886888604F00200F0B144F4FD
:102A8000C0404FF6FF7101EA002044F4C04140EA23
:102A90002120E9492639C88540F20240C886012034
:102AA000088701221821E448001FFFF7B6FEE2491B
:102AB000263948863A20E249087018E044F4A040DC
:102AC0004FF6FF7101EA002044F4A04140EA2120C2
:102AD000D9492639C88501221421D748001FFFF79C
:102AE0009CFED549263948863620D5490870D548F8
:102AF000007840F00200D349087010BD0020D24990
:102B00000870D248007800F00300012803D110209B
:102B1000CF49087002E02020CD4908700020CB4941
:102B200008707047C948007820F00400C749087051
:102B3000704710B5C748007805281AD2DFE800F0C2
:102B400003060A0E1200FFF77DFD12E00220FFF7D8
:102B50000AFF0EE01220FFF706FF0AE01120FFF740
:102B600002FF06E0B748007840F00100B549087060
:102B700000BF00BF10BD0020B7490870704700209B
:102B8000B5490870B148007840F00400AF490870BA
:102B90000846007820F00800087070472DE9F047DB
:102BA000FDF790FF8046FDF78DFF8246AB48008819
:102BB000824501D0BDE8F087FDF784FF0704FDF7EB
:102BC00081FF0743FDF77EFF0604FDF77BFF064309
:102BD000FDF778FF044604F470404FEAA029A048AE
:102BE00000881438A0EB090085B2B5F5807F00DDC0
:102BF000E0E7B9F1140F04DDA9F1140188B2FDF783
:102C000081FF9148007820B101282CD002286FD193
:102C100062E004F0040028BB9248A0F800809248CB
:102C200092490A68026089888180914891490968BF
:102C3000016004F0100028B17E4806600420FFF710
:102C400092FE0FE000207B49086078197B490860FC
:102C500004F0030018B108460068401C0860142006
:102C6000FFF781FE90E104F00400A0BB7D48A0F8CE
:102C700000807D487D490A680260898881807C489F
:102C80007C490968016004F0100028B169480660B9
:102C90000420FFF768FE1EE004F00200D8B1781CA3
:102CA00066490860744801884FF04020806861F3ED
:102CB0001F406049086008460068401C6F49086072
:102CC0001220FFF750FE022062490870FFF7A8FCAF
:102CD00003205D49087057E104226649644800F00A
:102CE0003AFD00B150E15F480088804501D04BE1DA
:102CF00050E004F0100060B160480068864208D0DF
:102D000004F0040020B94B4806600420FFF72BFEB6
:102D10003AE104F0040058B104F0100038B100208A
:102D200049490870494908703020494908702BE129
:102D300004F00200F8B1414807600068401C3F49B8
:102D4000086004F01000B8B1FFF7ECFE4B480068D3
:102D5000384908601020FFF706FE04203A49087041
:102D60003B48007840F00200394908700846007876
:102D700040F0080008700CE0FFF7D4FE1220FFF7C7
:102D8000F2FD022033490870FFF74AFC03202E4968
:102D90000870F9E004223749354800F0DCFC00B146
:102DA000F2E030480088804500D0EDE0234800681C
:102DB000874200D0E8E004F0040040B1002022493E
:102DC000087022490870302021490870DCE004F0C6
:102DD000020058B10420FFF7C6FD00201A49087010
:102DE0001A49087040201A490870CDE004F010001C
:102DF00000B9C9E021480068864266D1FFF792FE1B
:102E00001E4800680B4908600F480078C01E08285B
:102E100050D2DFE800F0044F354F4F393D490420D0
:102E2000094908700A48007840F002000849087013
:102E300040E0000028000010DC0C00103000001002
:102E4000460000104700001021000010480000104C
:102E50005C00001022000010340000104E00001032
:102E60004200001050000010520000103800001006
:102E7000580000103E000010240000102C0000102C
:102E80000620FE49087015E00A20FC49087011E090
:102E90000020FA490870FA490870FA48007800F0F2
:102EA0000400F849087005E01020FFF75CFDFFF70B
:102EB00062FE00BF00BFF1480078042805D1F14848
:102EC000007840F00800EF490870EC4800780428CA
:102ED00007D0EA480078052803D0E848007806289B
:102EE0001CD1DDB1E748007800F00400B0B906203D
:102EF000FDF708FE2946E448FDF7F2FDE3480580AA
:102F0000E048007840F00400DE490870E0480068BE
:102F10002844DF4908601020FFF725FD04F0010078
:102F200088B3D6480078C01E082823D2DFE800F016
:102F3000040509132222221F00BF0720CF49087071
:102F400018E00820CD490870CE48007820F0020033
:102F5000CC4908700EE0FFF712FE0A20C74908703E
:102F6000C848007820F00200C649087002E0FFF768
:102F700002FE00BF00BFC6480068401CC44908608C
:102F80001020FFF7F0FC00BF00BF00BF12E610B535
:102F9000C04800883C2801DD242403E0BD480088A7
:102FA000183884B2BC48BD490A68026089888180AB
:102FB000BB490A68C0F80620898841810820B649C3
:102FC00088814520C88104F1180081B2B2481030D0
:102FD000FFF75CFC0020B049488288824FF4A07063
:102FE000C882002008830846AE490968C0F81A1054
:102FF000AD490968C0F81E10002214210E30FFF7F9
:103000000CFCA54908830020488488842146A248F6
:103010002630FDF765FD201D81B200229E4822303A
:10302000FFF7FBFB9C49888404F126009F49087048
:103030009F48007840F002009D49087010BD10B50F
:10304000FDF740FD0446FDF73DFD2012082802D1A2
:10305000FFF79DFF00BF00BF10BD38B5FDF732FD83
:10306000B0F5006F29D0A0F6060000285AD1844898
:10307000007800F0030001281ED1FDF723FD012890
:103080001AD1FDF71FFDB0F5006F15D1FDF71AFD40
:1030900040F2046188420FD1FDF714FD02280BD1E4
:1030A000FFF740FD06218348FDF71AFD74480078BC
:1030B00040F002007249087034E0FDF703FD00F4AF
:1030C0007F40B0F58A4F2CD1FDF7FCFC7149088098
:1030D000FDF7F8FCFDF7F6FCC0F30D0008BBFDF7AB
:1030E000F1FCC4B2FDF7EEFC04216F48FDF7F8FCDB
:1030F00004216846FDF7F4FC04226946694800F0A3
:103100002AFB70B9012C04D0062C05D0112C07D154
:1031100005E0FFF794FF03E0FFF740FD00E000BF8C
:1031200000BF00BF00BF38BD5B485C490A68026051
:10313000898881805A490A68C0F8062089884181B7
:103140004FF4C160544988814FF48070C8810820D1
:10315000088240F2064048824FF400708882084698
:103160004F490A68C0F81620898841834D4909688B
:10317000C1614A490A680262898881844A490968AA
:10318000C0F826102A20494908704948007840F0C4
:10319000020047490870704708B5FDF793FC40F6F8
:1031A0000601884228D1FDF78DFC012824D1FDF7C6
:1031B00089FCB0F5006F1FD1FDF784FC40F204617B
:1031C000884219D1FDF77EFC012815D10620FDF7B4
:1031D00099FC04213448FDF783FC0620FDF792FC9E
:1031E00004216846FDF77CFC042269462D4800F066
:1031F000B2FA08B9FFF798FF08BD10B5FDF7BCFC9F
:1032000048B1FFF7DEFA10B1FFF7C6FF01E0FFF7A4
:1032100024FFFDF7A5FC1A48007800F0040048B32D
:103220001748007800F00800A8B123480078082863
:1032300020DDFFF7A0FC2148007838B1FFF779FCCA
:103240001E480078401E1D49087013E0FFF76AFC15
:10325000FFF754FC0EE01848007802280ADD002031
:1032600006490870064908700648007800F0040016
:103270000449087001480078082821E02100001066
:10328000480000105C000010000D00104A00001003
:103290003000001042000010B60C00103800001082
:1032A00065670000BA6200003E0000104600001092
:1032B00047000010520000103400001035000010CC
:1032C00074D2DFE800F0040573353673735700BF1E
:1032D0005C48007800F0010048B35A48007800F0DC
:1032E000020020B35848007800F00200F8B95748AF
:1032F00001884FF04020806861F31F405449086006
:103300000846006853490860002053490860514846
:103310000068401C4F4908600220FFF724FB012091
:103320004E490870FFF77CF902204D4908703DE0D6
:1033300000BF4448007800F01000D0B14248007847
:1033400000F00300A8B94248006842490968884271
:103350000FD140480068401C3E4908601120FFF72B
:1033600002FB03203D490870FFF75AF905203C494C
:1033700008701BE03448007800F00300A8B9344816
:1033800000683449096888420FD132480068401CFF
:10339000304908601120FFF7E6FA03202F49087032
:1033A000FFF73EF909202E49087000BF00BF2648EC
:1033B000007800F00200C0B12A480078FDF7ACFBAD
:1033C000FDF7BAFB10B1FFF7C7FA08E00020244967
:1033D000087050202449087000201A4908701A48C3
:1033E000007820F00200184908701748007800F0B3
:1033F0000100D0B1FFF74FFA1C480088FDF78CFBA5
:10340000FDF79AFB10B1FFF7FBF908E00020144923
:10341000087050201449087000200A4908700A48B2
:10342000007820F001000849087010BD07480088A6
:10343000401C064908800E480078401C0C49087062
:1034400070470000480000104700001024000010E2
:10345000280000102C000010300000102200001086
:1034600021000010460000105C0000104400001015
:10347000340000101B48006840F400401949C4396A
:10348000C1F8C4000846D0F8C40040F08070154967
:103490000860012014498862C862832013490873B8
:1034A00015200870952011492831087000200F4917
:1034B000087103200873704700BF0C49097D01F0B3
:1034C00020010029F9D0094A107070470748007D93
:1034D00000F0010010B10548007870474FF0FF3050
:1034E000FBE70000C4C00F4000C00240008009405C
:1034F0000FB41CB5074B06AA7B446946009005989B
:1035000000F031FA0020694600F040FA1CBC5DF87A
:1035100014FB00009104000070B504468569006842
:10352000C10601D5302600E02026C00707D070BDB7
:10353000D4E9012130469047206A401C20626D1E6C
:10354000F6D570BD70B5044685690078C00707D10F
:1035500070BDD4E9012120209047206A401C2062E0
:103560006D1EF6D570BD00002DE9F0410646002421
:1035700010687529314616A510D0AFF300800028D9
:1035800002DA404213A507E031688A0701D512A587
:1035900002E0490704D511A5012401E0AFF3008042
:1035A00000210A2206F1240709E0B0FBF2FCB0FB7F
:1035B000F2F302FB1C00303078541846491C0028F6
:1035C000F3D123462A463046BDE8F04100F06DB9FC
:1035D000000000002D0000002B0000002000000073
:1035E0002DE9F05F894604464FF0000ADFF824B168
:1035F000FB44C0F820A02046E168884700287DD021
:10360000252806D0D4E901219047206A401C206279
:10361000F1E700255F462046E168884720280646F6
:1036200007DB312E05D2B81910F8200C08B105437C
:10363000F1E7A80701D525F00405C4F81CA0002770
:10364000C4F818A02A2E09D0304601F024FD38B362
:1036500004EB8708303EC8F8186019E059F8041BDD
:10366000204604EB87029161E1688847012F0646F6
:1036700018D1E069002820DA25F020051DE0D8F8EF
:10368000180000EB800006EB40003038C8F8180046
:103690002046E1688847064601F0FDFC0028EED18F
:1036A000012F0AD02E2E08D12046E16888477F1CC2
:1036B0000646022F45F02005C4DBA069002803DA86
:1036C000404245F00105A061E80701D025F0100552
:1036D000A6B1A6F14100192802D8203645F40065AC
:1036E0004A463146204625604D46FCF745FD60B10F
:1036F000012807D0ED1D25F0070000E007E000F1EC
:10370000080978E705F1040975E730467AE7206A89
:10371000BDE8F09F7731000070B5064600F0B6F8BE
:103720000468054630460A22002100F087F92C6023
:1037300070BD30B505460B462A4613F8014B12F80A
:10374000010B08B1A042F8D01CB1002802D06D1CBA
:10375000F1E7284630BD40EA010310B59B070FD1C1
:10376000042A0DD310C808C9121F9C42F8D020BAF1
:1037700019BA884201D9012010BD4FF0FF3010BDA9
:103780001AB1D30703D0521C07E0002010BD10F877
:10379000013B11F8014B1B1B07D110F8013B11F83D
:1037A000014B1B1B01D1921EF1D1184610BD10B563
:1037B000431C02E010F8011B71B18107FAD14FF0F0
:1037C000013202C88C1A8C4314EAC211F9D0C01A13
:1037D0000A0603D0C01E10BDC01A10BD0A0401D0D5
:1037E000801E10BD0902FCD0401E10BD032A40F20D
:1037F000308010F0030C00F0158011F8013BBCF193
:10380000020F624498BF11F801CB00F8013B38BFAA
:1038100011F8013BA2F1040298BF00F801CB38BFB8
:1038200000F8013B11F0030300F04081083AC0F0BA
:10383000088051F8043B083A51F804CBA0E808107E
:10384000F5E7121D5CBF51F8043B40F8043BAFF3B1
:103850000080D20724BF11F8013B11F801CB48BF0B
:1038600011F8012B24BF00F8013B00F801CB48BF41
:1038700000F8012B704702F0FF0343EA032242EAFB
:10388000024200F047B970477047704700487047E0
:103890008827001010B5FFF7F9FF006810BD10B5BC
:1038A0000446FFF7F3FF046010BD2DE9F0470D4615
:1038B00099469246044600F124080168880604D51A
:1038C000E06921F01001216000E00120A84201DD43
:1038D000471B00E00027A1697A1902EB0900081ACA
:1038E000A0612078C00602D42046FFF715FE00260E
:1038F00008E0D4E901211AF806009047206A401C2C
:10390000761C20624E45F4DB2078C0060AD520469E
:10391000FFF702FE06E0D4E9012130209047206A3B
:10392000401C2062381EA7F10107F4DC07E0D4E94F
:10393000012118F805009047206A401C2062281ECB
:10394000A5F10105F3DC2046FFF7FCFD2078000619
:1039500002D50220BDE8F0870120FBE701694A1C7F
:1039600002610878704700B58FB0CDE901310021C0
:10397000059105497944CDE9031011466846FFF7E2
:103980002FFE0FB000BD0000E5FFFFFF0A6802F840
:10399000010B0A60704700000FB4002300B589B026
:1039A0000CA900910B99CB60214B7B440693214BD2
:1039B0007B44079304236FF00042CDE901321E4A95
:1039C0007A446B4608920246002002F041FC09B09E
:1039D0005DF814FB70B506464FF0FF3015460C46F7
:1039E000324686B00091CDE901016946002004907D
:1039F00004A8FFF7D1FF02460498211825B108B1A9
:103A0000084600E020462860049800280DD0002ACF
:103A100002DD0098884208D03246081B69460094AF
:103A2000CDE9010404A8FFF7B7FF06B070BD0000A0
:103A3000D1010000E9010000A90100002DE9F047D3
:103A400091460F4680460446002614F8015B2DB1CE
:103A500000F084F80068405DC007F6D12B2D02D03D
:103A60002D2D18D0641E4A463946204600F0A7F88E
:103A700027B13968A14201D1C7F800804FF0020494
:103A800071050BD54042002803DDFFF7FFFE0460FF
:103A9000A007BDE8F08746F48066E4E70028F8DA7E
:103AA000FFF7F4FE04606FF00040F2E710B5203A33
:103AB000C0F00B80B1E81850203AA0E81850B1E8E7
:103AC0001850A0E81850BFF4F5AF5FEA027C24BF9D
:103AD000B1E81850A0E8185044BF18C918C0BDE894
:103AE00010405FEA827C24BF51F8043B40F8043B5D
:103AF00008BF7047D20728BF31F8023B48BF11F812
:103B0000012B28BF20F8023B48BF00F8012B70476B
:103B10004FF000020429C0F0128010F0030C00F0F6
:103B20009F80CCF1040CBCF1020F18BF00F8012BF0
:103B3000A8BF20F8022BA1EB0C0100F091B85FEABE
:103B4000C17C24BF00F8012B00F8012B48BF00F80E
:103B5000012B7047004870478827001010B500F00F
:103B6000C9F8001D10BD00BF6116000010B5044665
:103B7000FFF7F4FF0068005D00F0010010BD42682F
:103B800042B1016811F8013B23B1521EC0E9001295
:103B9000184670470121C160881E704742685AB1BB
:103BA000C368016843B983688B4205D0491E521C23
:103BB000C0E90012002070474FF0FF3070472DE938
:103BC000F05F824615468B4600270AF10104B9468C
:103BD0000078302801D09DB113E014F8010B0127C3
:103BE000782803D0582801D045B10AE00DB1102D36
:103BF00007D1002714F8010B102502E0082500E08A
:103C00000A250026B0460EE005FB080005FB06F17C
:103C100001271FFA80F801EB1046B6F5803F00D36C
:103C2000B94614F8010B294600F068F80028EBDAD1
:103C3000BBF1000F05D00FB1641E00E05446CBF875
:103C40000040B9F1000F06D0FFF720FE022101600D
:103C5000C81EBDE8F09F48EA0640FAE74FF00002B0
:103C600000B5134694469646203922BFA0E80C5072
:103C7000A0E80C50B1F12001BFF4F7AF090728BF4D
:103C8000A0E80C5048BF0CC05DF804EB890028BFC9
:103C900040F8042B08BF704748BF20F8022B11F0F2
:103CA000804F18BF00F8012B70477546FFF752FF91
:103CB000AE4605006946534620F00700854618B019
:103CC00020B5FCF77FFFBDE820404FF000064FF025
:103CD00000074FF000084FF0000B21F00701AC4641
:103CE000ACE8C009ACE8C009ACE8C009ACE8C00960
:103CF0008D46704700487047A82700103A2800D228
:103D0000303820F02002412A01D3A2F13700884246
:103D100001D34FF0FF3070472DE9FF4F06468BB0BF
:103D20000878FF2806D0491C2D2805D000244FF024
:103D3000000908E000200CE00124F8E709EB890302
:103D4000491C00EB43090878FF28F7D114B1C9F1E9
:103D500000008146107800252C46AA4629462D28C9
:103D600001D02B2804D1521C2D2813D000208246CC
:103D70008B461078FF280FD04FF0000C0A21521C00
:103D8000A5FB017804FB018105FB0C11C5194BEB68
:103D90000104EEE70120EAE7002108464FF00000A9
:103DA000BAF1000F02D000EB80004008C0F3815749
:103DB000012F01DD4FF0FF370E9955EA040009EBA2
:103DC00001080BD04FF0020918F5FA7F16DA4FEA16
:103DD000CA70002F706008DD012007E04FEACA704A
:103DE000C6E900B00FB0BDE8F08F00203060FFF7EB
:103DF0004DFDC0F800901821084616E0B8F5FA7F8E
:103E000018DD002F02DAF748784401E0F6487844DC
:103E1000D0E90010C6E9001040EACA707060FFF7F0
:103E200035FDC0F80090142108460FB0BDE8F04FF2
:103E300002F0ABB9002108464FF00000B8F10001D4
:103E4000099002DAC7F1000200E03A4601DAC8F14F
:103E5000000106A800F026FA06AB93E8070003ABC2
:103E600083E8070044F23E005BEA040100905846F4
:103E700004D144F21E012C465D460091210C090438
:103E8000014306D10099240444EA15442D04103955
:103E9000009104F07F41014306D10099240244EAD5
:103EA00015642D020839009104F07041014306D1D8
:103EB0000099240144EA15742D01091F009104F0B2
:103EC0004041014306D10099A40044EA9574AD0035
:103ED000891E009104F00041084304D100986D1937
:103EE0006441401E00904FF001033A466846B8F125
:103EF000000FCDE9014503A902DD00F014FF01E048
:103F000000F0E7FEBAF1000F04460D4601D084F040
:103F10000044002108464FF00000099940F2FF7765
:103F2000484010F00C0F07D124F00040284303D084
:103F3000C4F30A50B84212D1FFF7A8FCC0F80090B1
:103F4000C4F30A50B8420AD1A8487844D0E9001016
:103F5000C6E9001004F000410843706042E7C6E97A
:103F600000543FE72DE9FF4F1F464FF0000A4FF086
:103F7000FF38454691B0D7E90146CDF83CA0FFF7A0
:103F8000B9FEC0680168405C1090B96912986D1C58
:103F90008847396A814688470028F6D1B9F1FF3F42
:103FA0000AD0002E24F4D06411DDB9F12B0F08D013
:103FB000B9F12D0F0BD102E0404615B013E744F4E0
:103FC0008064B96912986D1C8847761E8146600529
:103FD00004A901D52D2000E02B20002E01F1010BBA
:103FE0000DF130088DF810003FDDB9F1690F08D0F0
:103FF000B9F1490F05D0B9F16E0F02D0B9F14E0FEA
:104000001CD13B4601A8009580E85002DDE9121260
:104010006FF0020002F020F9C11CCED10EE0B969A8
:1040200012986D1C884781461398761E44F40074DC
:1040300005600F98401C002E0F9016DDB9F1300F6F
:10404000EDD0B9F1780F02D0B9F1580F0DD10F981A
:1040500001280AD13B46CDE90054DDE91212001FC8
:10406000029602F0F7F8C11CA7D1109989453ED1FC
:1040700044F0800406E01399681CAAF1010A44F494
:1040800000740860B9696D1C1298761E8847302844
:104090008146F0D02BE01099894505D1200603D444
:1040A000761E44F0800418E0484600F0F4FF08B3A0
:1040B000761E0DF123018B4544F4007408D2A9F15A
:1040C00030000BF8010B200607D5AAF1010003E030
:1040D000200602D40AF101008246A00502D51399F8
:1040E000681C0860B96912986D1C88478146002ECB
:1040F000D1DC53E0002E51DDB9F1650F02D0B9F1EA
:10410000450F4BD1A00549D5B9696D1C1298761E93
:1041100024F440748847002E81460CDD2B2804D0FF
:10412000B9F12D0F07D144F48074B96912986D1C50
:104130008847761E8146E00501D52D2100E02B2120
:1041400008F8011BCDF8008021E0761E0DF1390141
:10415000884544F400740CD2A9F1300010F0FF003F
:1041600088F8000002D10099884509D908F10108B2
:1041700006E0E00501D51E4801E042F20F708246DC
:10418000B96912986D1C8847814613980560002E06
:1041900004DD484600F07FFF0028D6D1F969129867
:1041A0008847FF2053468BF8000088F80000002065
:1041B0000A900B9004AA0CA90AA8FFF7ADFDA00570
:1041C00002D46FF00100F8E614F0240F12D0E007DB
:1041D0001CD13868DDE90A12031D3B600068C0E9A4
:1041E000001213E02C2A00001E2A0000E228000022
:1041F000F1D8FFFF0AA9684600F0DCFEE00705D110
:104200003868009A011D3960006802602846D4E6CB
:1042100010B50446AFF300802046BDE81040FBF720
:10422000CEBF00004FF0013C50F8042B51F8043B86
:104230009A4221D1A2EB0C03934313EACC1317D17A
:1042400050F8042B51F8043B9A4215D1A2EB0C0311
:10425000934313EACC130BD150F8042B51F8043BD1
:104260009A4209D1A2EB0C03934313EACC13DBD09F
:104270004FF00000704700BFD01A01BAB1FA81F1C7
:1042800001F0180122FA01F0CB40C1F12001DBB2AC
:10429000C0B2C01A2CFA01F3D11A914311EAC3112A
:1042A000E6D170472DE9F047814616468AB0354879
:1042B00078440DC88DE80D0032487844801C03AC6A
:1042C0000DC884E80D0041F69B300844372190FB6F
:1042D000F1F290FBF1F5A5F1800501FB12041B3C06
:1042E00002D56442012000E00020DFF898A080465B
:1042F0000027FA44AAF1BE0A0EE0E0070AD03246CF
:10430000684607EB470101230AEB810100F0F6FC48
:104310008DE8070064107F1C002CEED1194F7F44FC
:10432000AE3F19E0E80715D007EB04100DF1180AAD
:1043300090E80E008AE80E00C068F04201D198199A
:1043400008903246012306A903A800F0D7FC03AB6E
:1043500083E807006D10641C002DE3D14FF00103CA
:1043600032466946B8F1000F03A802D000F09CFC69
:1043700001E000F0C3FCC9E90001C9F808200AB057
:10438000BDE8F087442500002DE9FF4F1F464FF0A0
:104390003C0987B04FF00042DDE9141001F101083B
:1043A000DDF858A002EA40500390002005908346B3
:1043B000054604460490B969461E08988847AAF144
:1043C000010A0290BAF1000F3BDD02982E2815D0A9
:1043D0001021FFF793FC00282EDB4FF0010B05990D
:1043E000014317D0B9F1000F0BDB4A46C11700F0AB
:1043F000FBF905430C43A9F1040905E001200490F1
:104400000BE008B145F0010501200590049820B9A2
:10441000361D02E0049800B1361FB969089808F10A
:1044200001088847BBF1000FAAF1010A0290C9D028
:104430000999C1F80080C5E70298702808D0502873
:1044400006D0F96908988847BBF1000F14D04FE0F7
:10445000002002900120BBF1000F049009D0B9693F
:10446000089808F101088847AAF10109B9F1000F7D
:1044700007DCF969089888476FF001000BB0BDE8C8
:10448000F08F2B2804D02D280CD14FF0FF30049052
:10449000B969089808F101088847A9F10109B9F13B
:1044A000000FE6DD411CE4D00A21FFF727FC0028BD
:1044B000DFDB029908F1010801EB810100EB41000B
:1044C0000290B969089888470A21FFF717FC099AF2
:1044D000A9F10109B9F1000FC2F8008001DD00283F
:1044E000E7DAF969089888470499029800FB0166A1
:1044F00055EA040004D004F04041090002D006E06F
:10450000039898E0A40044EA9574AD00B61E04F048
:104510000041080002D16D196441761E159810F013
:10452000240F03D04FF00B095C4803E04FF028093B
:104530006FF07D008246564507DAAAEB06018944F2
:10454000B9F1410F01DD4FF0410901200021A9F12E
:10455000010200F049F9024628400B462140084379
:1045600001D0012100E00021501E029143F1FF31F2
:1045700028402140084301D0012000E0002002999A
:10458000834651EA0B014FD0002108464FF000004E
:10459000039900F4400039B100EB80004FF4400172
:1045A00000EBD07001EA60008015012802DD4FF0B9
:1045B000FF3000E013D0401C36D0029860B3BBF14E
:1045C000000F0CD14A460120002100F00DF92840CF
:1045D0002140084301D0012000E00020E0B101208B
:1045E0004A46002100F000F9034640190A4661419D
:1045F0002D1A8C4111D3B9F1400F09DD159810F037
:10460000240F02D0AAF1340603E0AAF1170600E055
:10461000761C00254FF0004406E05B1E42F1FF329D
:1046200020EA030521EA0204CAF10100B04206DAD9
:104630001B49039808430190002000900EE0039A64
:10464000C4F3D321E80A0A43164940EA44500A4316
:104650003146CDE90002684600F012FD159810F0D1
:10466000240F0BD01598C00715D13868DDE900126A
:10467000031D3B600068C0E900120CE002A8694617
:1046800000F098FC1598C00705D13868029A011D02
:104690003960006802604046F0E6000002FCFFFF5F
:1046A0000000F07F0000F03F2DE9FF4F92461D46CD
:1046B00085B04FF00041DDE9124BDDE914727F1E39
:1046C00001EA4B50414940F0FF4940EA010800210E
:1046D00022F020004928049102D04E2828D04CE036
:1046E0003BA0012607C88DE80700A9690698641C4D
:1046F00088477F1E014606D41DF8060018B121F038
:10470000200181420BD0E96906988847032E34D0F6
:10471000082E32D06FF0010009B0BDE8F08F761C92
:10472000032E01D0082EE0D1601CCAF80000DCE79F
:10473000A9690698641C88477F1E2AD420F02000AF
:10474000412826D1A9690698641C88477F1E20D479
:1047500020F020004E281CD1A9690698641C8847C7
:104760007F1E48F4002849F48009CAF8004001D4AB
:10477000282806D0E969069888475FEACB7012D0EE
:1047800022E0A9690698641C88477F1E01D400288E
:1047900003DAE96906988847BCE72928F1D1641C47
:1047A000CAF80040E9E71BF0240F07D028680499F5
:1047B000031D2B600068C0E9001805E02868021D91
:1047C0002A600068C0F800902046A5E70000F07F4E
:1047D000494E46494E4954590000000001491820ED
:1047E000ABBEFEE726000200B2F120030AD5C2F1FB
:1047F000200301FA02F120FA03F300FA02F041EA81
:104800000301704700FA03F14FF000007047704752
:1048100020F07F4C80EA030023F07F47ACEB0703D6
:1048200003F57C5300F0004003F1FF032DE98049BC
:104830004FEA154B09B44FEA144325EA0B4E24EA1C
:1048400003480FF2042606EB132749083E785FEA77
:10485000320203FB0667C7F5000707FB06F64FEABF
:1048600054374FEAD64606F1020607FB066CCCF138
:10487000005C4FEA1C472CEA074C07FB06F40CFBD4
:1048800006F504EB15464FEA961634BF00204FF0AC
:1048900000404FEAD13706FB07FC4FEA1C4C0CFBEB
:1048A0000BF7D21B03FB0CF761EB07010CFB0EF7B8
:1048B000B0EB074072EB17420CFB08F734BFA2EBDA
:1048C0000742B2EB074261EB17414FEA0C444FEA53
:1048D000910706FB07FC4FEA1C4C0CFB0BF7B0EBF7
:1048E000C74072EB573203FB0CF734BFA2EBC74251
:1048F000B2EBC74261EB57310CFB0EF7B0EBC700D0
:1049000072EB57720CFB08F734BFA2EBC702B2EB95
:10491000C70261EB5771039F4FEA816141EA92112F
:1049200004EBCC044FEAD1374FEA826206FB07FC66
:1049300042EA90124FEA80604FEA1C4C0CFB0BF7E6
:10494000D21B03FB0CF761EB07010CFB0EF7B0EB7E
:10495000074072EB17420CFB08F734BFA2EB07428B
:10496000B2EB074261EB17414FEA8C554FEA9107D2
:1049700004EB9C2406FB07FC4FEA1C4C0CFB0BF7DA
:10498000B0EBC74072EB573203FB0CF734BFA2EB1E
:10499000C742B2EBC74261EB57310CFB0EF7B0EBED
:1049A000C70072EB57720CFB08F734BFA2EBC702CB
:1049B000B2EBC70261EB577115EB4C254FEA8161F1
:1049C00041EA92114FEA82624FEAD13742EA9012ED
:1049D00006FB07FC44F100044FEA80604FEA1C4CE0
:1049E0000CFB0BF7D21B03FB0CF761EB07010CFB75
:1049F0000EF7B0EB074072EB17420CFB08F734BF21
:104A0000A2EB0742B2EB074261EB174115EB1C1515
:104A10004FEA813141EA92414FEA823242EA9042C2
:104A20004FEA80304FEA0C7644F1000448EA034331
:104A30004EEA0B484FF0000EB2EB080C71EB030787
:104A400024BF624639464EEB0E0E4FF0000B0018A5
:104A5000524149414BEB0B0BB2EB080C71EB0307D6
:104A60007BF1000B24BF624639464EEB0E0E4FF031
:104A7000000B0018524149414BEB0B0BB2EB080CF9
:104A800071EB03077BF1000B24BF624639464EEB06
:104A90000E0E51EA020718BF46F0010616EB0E761D
:104AA00055F1000254F1000103D5BDE88901BDE8CC
:104AB0000088BDE88901BDE80048B619524141EBC4
:104AC0000101A3F10103704780807F7E7D7C7B7AAA
:104AD0007978777676757473727171706F6E6E6DAA
:104AE0006C6C6B6A6A696868676666656464636350
:104AF00062616160605F5F5E5E5D5D5C5C5B5B5AD6
:104B00005A59595858575756565555555454535342
:104B100052525251515050504F4F4F4E4E4D4D4D9D
:104B20004C4C4C4B4B4B4A4A4A49494948484847E8
:104B30004747474646464545454444444443434326
:104B4000434242424241414146EA0646A3F5705380
:104B50004FEA164646EA42564FEAD22242EA41520C
:104B600010B54FEAD121A3F1010300F02FF820F096
:104B7000004000F1020C00F0004701EB005011462C
:104B8000BCF5006F40EA070000D210BDBAF1000F7B
:104B90000AD01CB503B44FF004004FF004014FF0ED
:104BA00000000FBCBDE810404FF00001BBF1010F49
:104BB000B9BF04484FF0FF310348002140EA070025
:104BC00010BD00BFFFFFEF7F0000F07F002B9C4671
:104BD00030D477002BD01CB54FEA370703B44FF021
:104BE00010004FF01001BAF1000F06D0BCF1000F19
:104BF000DCBF40F0080040F008014FF000000FBC9F
:104C0000BDE810400BF1010BBBF1010F08BF5FEADB
:104C1000170722BF12F1010211F101014FF000410B
:104C200043F1000300F0004043EA00007047F9D36D
:104C30005708D0E746EA064613F1400F4FEA1646FA
:104C40001FDD13F1200FDFBF16430A46002120337A
:104C50005B42BED0C3F1200746EA064602FA07F7D8
:104C60004FEA164646EA0706C3F1200722FA03F286
:104C700001FA07F721FA03F14FF0000342EA0702B5
:104C8000A7E746EA020646EA06464FEA164646EA1D
:104C90000106BCBF46EA0646360C4FF000034FF053
:104CA00000024FF0000194E72DE9804C9A469346AC
:104CB00070B491E8380007C831EA400C48BF34EAC4
:104CC000430C03D5FFF7A4FDFFF780FFF0BCBDE860
:104CD000008C2DE9804C9A46934670B491E83800D8
:104CE00007C831EA400C48BF34EA430C03D5FFF74C
:104CF0008FFDFFF729FFF0BCBDE8008C2DE9804C4B
:104D00009A46934670B491E8380007C810F0804F77
:104D100008BF13F0804F03D100F01AF8FFF756FFD9
:104D2000F0BCBDE8008C2DE9804C9A46934670B4E7
:104D300091E8380007C810F0804F08BF13F0804F8B
:104D400003D100F005F8FFF7FFFEF0BCBDE8008CD2
:104D500020F07F4780EA030023F07F4C07EB0C0331
:104D6000A3F57C5300F00040A3F1FE0392F0000F86
:104D700000F0B38095F0000F00F077802DE9014935
:104D80004FEA11404FEA144621EA004800FB06FCB6
:104D900024EA064708FB06F607FB08F800FB07F7BE
:104DA00018EB06484CEB164C4FEA124B18EB074831
:104DB0004FEA15464CEB174022EA0B4E0BFB06FC64
:104DC00025EA06470EFB06F607FB0EFE0BFB07F770
:104DD0001EEB064E4CEB164C4FF000061EEB074E3A
:104DE0004CEB174B18EB0B0840F1000018EB0E0BC7
:104DF00058EB000840F100008F1A4FF000013CBF53
:104E0000C943661B14BFB5EB040C00213CBFC9436A
:104E1000F61B4FEA17444EEA8E0E27EA04454FEA86
:104E20001C4704FB07622CEA074C05FB07F70CFB49
:104E300005F604FB0CFC16EB074642EB174216EB9B
:104E40000C4642EB1C421BEB060658EB02024141AA
:104E500046EA9E0601D5BDE80189B619524141EBEB
:104E60000101A3F10103BDE801894FEA14454FEAAE
:104E7000114724EA054621EA074C05FB07F406FB27
:104E800007F70CFB06F105FB0CFC11EB074144EBAB
:104E900017444FEA124711EB0C4144EB1C4422EA41
:104EA000074C05FB07F206FB07F70CFB06F605FBB4
:104EB0000CFC16EB074642EB174216EB0C4642EB96
:104EC0001C456A1854F1000148BF7047B619524199
:104ED00041EB0101A3F10103704795F0000F37D0BA
:104EE0004FEA11424FEA144721EA024624EA074CEE
:104EF00002FB07F106FB07F70CFB06F402FB0CFCB8
:104F000014EB074441EB17414FEA154714EB0C44EF
:104F100041EB1C4125EA074C02FB07F506FB07F7AE
:104F20000CFB06F602FB0CFC16EB074645EB17459F
:104F300016EB0C4645EB1C42121951F1000148BF1B
:104F40007047B619524141EB0101A3F101037047CB
:104F50004FEA14454FEA114724EA054621EA074C77
:104F600005FB07F106FB07F70CFB06F24FF0000606
:104F700005FB0CFC12EB074241EB174112EB0C4214
:104F800051EB1C4148BF7047921841EB0101A3F15E
:104F90000103704740F2013200204FF0E04101F080
:104FA00029B90000024A0020110701F023B90000CE
:104FB00001FDFFFF10B50446D1E9000100F002F841
:104FC000206010BDF8B504460D466A4600F080F832
:104FD00000987E30009000281EDC002213462046F8
:104FE000294600F04DFB17D0002140F608004FF095
:104FF000000006462046294600F0FCF8044640F62C
:10500000080006EA00014FF0000034F0004004BF41
:105010000220FEF744FC29E00098FF2828DB00214D
:1050200008464FF0000000F44006002213462046D8
:10503000294600F0E1FC8CBF002501250220FEF787
:105040002EFC4FF0FF4446B1002D0CBF4FF4000082
:105050004FF48000B04218BF084C042108464FF0BE
:105060000000002D04BF84F00040F8BD2046F8BDCC
:1050700020462946BDE8F84000F0BCB8FFFF7F7F1E
:1050800010B504460A46D4E90003194600F04CF86E
:10509000C4E9000110BD30380A2801D20120704750
:1050A0000020704730B583B00446FEF7F3FB054699
:1050B0000020CDE90000024621466846FEF78AFC42
:1050C0002846FEF7ECFBDDE9000103B030BD00002F
:1050D00010B5144600222260114A21F00043934289
:1050E000A8BF10BD53EA000208BF10BDB3F5801F72
:1050F000A8BF226807DA362201F07CF86FF035028B
:1051000021F000432260DFF81CC06FF31E510CEB4E
:1051100023531A4441F0FF5141F00051226010BD69
:105120000000F07F02FCFFFF2DE9F04106460C462F
:1051300040F2FF75174635EA14502BD00022134673
:10514000304600F09DFA25D03A463046214601F01F
:1051500051F806460C4635EA145010D0002213468A
:10516000304600F08DFA15D10220FEF798FBFFF7CC
:1051700019FF0A46214662F31E01BDE8F0810220B4
:10518000FEF78DFBFFF706FF0A46214662F31E017C
:10519000BDE8F08130462146BDE8F08110B5002918
:1051A0000AD00878002807D005487844FFF73AF875
:1051B000002801D0002010BD0248784410BD000036
:1051C000961600008E16000010B500290AD0087847
:1051D000002807D005487844FFF724F8002801D0BC
:1051E000002010BD0248784410BD00008616000063
:1051F0007E16000021F00042A2F16052B2F5801F3D
:1052000001F0004328BFD2F17F6C0BD95FEA001C8C
:1052100043EAC20242EB507018BF704728BF20F02B
:1052200001007047B2F5801FBCBF184670474FEAB7
:10523000410C1CF5001F02D2084600F02CBF70B5CF
:1052400000F086FB00000089FFF7F6BF4FF000403A
:10525000A0F580007047000010B591EA030F48BF29
:1052600083F0004300F10684841A71EB030C05D22D
:10527000121943EB0C03001B61EB0C01DFF824E176
:105280004FEA1154A4EB135C1EEA430F18BF9EEAC9
:10529000445F73D023EA0E03DCF1200E21EA0451AF
:1052A00043F4801332D322FA0CFE10EB0E0023FAE3
:1052B0000CFE41EB0E01CCF1200E03FA0EFE10EBBA
:1052C0000E0051F10001B1F5801FCCF1200E32D259
:1052D00001EB045112FA0EF2BDE8104058BF7047BE
:1052E000401C38BF5FEA420218BF7047002814BF55
:1052F00020F0010041F100014FEA410313F5001FC6
:1053000038BF7047A1F1C04100F070BB012A43EBE8
:105310000302ACF1200CDCF11F0E32BF4FF0000E87
:1053200023FA0CF310EB030041EB0451B4EB115FD3
:10533000D0D0A1EB045101F5801149085FEA30009B
:1053400001EB04510ED350F1000038BF12FA0EFEEB
:1053500008D1BDE81040C9E7401C38BF5FEA4202EF
:10536000CAD1C3E7BDE810404FEA410313F5001F5F
:1053700038BF7047A1F1C04100F038BB9EEA445FDE
:1053800008D011EA5E0FBDE8104004BF01F00041F3
:1053900000207047BDE8104070B500F0D9FA00BF9A
:1053A00064FBBE3E0000E0FF02494FF0000000F049
:1053B000EFBE00BF0000F87F491058BFC1F1404167
:1053C0005B1058BFC3F140438B42EFF3008070473E
:1053D0002DE9C04130B4DFF8A0C23CEA111418BF77
:1053E0003CEA131400F0EC8081EA03051CEA111476
:1053F00044EAD57418BF1CEA131500F0C780A4EB6B
:1054000005044FF0004545EAC12145EAC32341EABE
:10541000505143EA525304F17F74994204F5003429
:105420004FEAC0204FEAC22208BF904200F09C80A1
:105430004FEA13650FF24016765D4FEA134506FBFF
:1054400005F7C7F1807706FB07F74FEAD737A7FBC9
:1054500003687642C8F58038A7FB06CE38BFA8F1AE
:10546000010807FB08E64FF0000EA6FB028CE6FBE6
:1054700003CEDCF1000CCEF1004E38BFAEF1010ED0
:10548000A6FB0C584FF000074FF00005E6FB0E8717
:10549000A1FB08C6A0FB07CE16EB0E0645F10005E2
:1054A000E1FB076515F1E04E7EBFA4F580345FEAAD
:1054B00046066D4116F1800745F100054FEA1727B2
:1054C0004FEA066647EA0567A6F1DE46B6F1805F59
:1054D0004FEA15251FD9384624F0010C05EBC4719D
:1054E000BCF1FE6F01EB0C1102D8F0BCBDE80081ED
:1054F00024425CBF01F5801E9EEAC47F02D4F0BC4A
:10550000BDE80081244238D4F0BCA1F1C041BDE81F
:10551000004100F06BBA4FEAD22242EA43524FEA0E
:10552000D323A7FB02864FEAD02040EA415007FB75
:1055300003661EEA0E0F4FEAD12105FB026658BF33
:10554000A6EB0056B6EB00564FEA520E4EEAC37E6B
:1055500018EB0E0E56EB530EBDD518EB02085E414C
:105560007F1C55F10005B6E74FF480154FF000079A
:105570004FF000064FF00008ADE7F0BC4FF0000020
:1055800001F1C04101F00041BDE8008111EA0C1FAA
:105590000CEA131500D00CE013EA0C1F00F0258074
:1055A0004FF00000F0BC81EA030101F00041BDE8CA
:1055B0000081F0BCBDE8004181EA030100F016BAA9
:1055C000F0BCBDE8004170B500F0C2F9097EFC3EB8
:1055D00000F007B881EA03014FF0000001F000413C
:1055E000704781EA030100F001BAF0BCBDE8004158
:1055F0004FF0000021497047FFFDFBF9F7F5F4F289
:10560000F0EEEDEBE9E8E6E4E3E1E0DEDDDBDAD85D
:10561000D7D5D4D3D1D0CFCDCCCBCAC8C7C6C5C4BB
:10562000C2C1C0BFBEBDBCBBBAB9B8B7B6B5B4B3D2
:10563000B2B1B0AFAEADACABAAA9A8A8A7A6A5A4BD
:10564000A3A3A2A1A09F9F9E9D9C9C9B9A99999881
:105650009797969595949393929191908F8F8E8E24
:105660008D8C8C8B8B8A89898888878786858584B1
:1056700084838382828181800000FF070000F87F9D
:1056800051EA030C17D41CF5801F58BFBCF5801FCE
:1056900000F10680994218BF704708BF90427047DA
:1056A00007D711F5801F58BF13F5801F19D49942F1
:1056B0007047894270471CF5801F08D5BCF5801FD4
:1056C000F7D58B4218BF704708BF824270474FF42E
:1056D000001C1CEB410F38BF1CEB430F01D28B4267
:1056E000704770B500F034F9922449004FF0005132
:1056F0004FF08053FFF760BE4FEA41034FEA535328
:10570000A3F58063D3F11E03C8BFD3F1210C0CDDD8
:105710004FF0004242EAC12242EA505232FA03FC00
:105720008CEAE17CACEBE1707047102BC4BF002029
:10573000704703F5787CBCF1FF3F04D06FF0004266
:1057400082EA2100704770B500F002F94992248086
:1057500000207047F2E710F0004248BF4042B0FA24
:1057600080F310FA03F10AD0C3F11D0303F580633F
:105770004FEA415002EB035202EBD12170474FF048
:105780000000704751EA030C17D41CF5801F58BF66
:10579000BCF5801F00F10680994218BF704708BF12
:1057A0009042704707D711F5801F58BF13F5801F2F
:1057B00019D499427047894270471CF5801F08D55B
:1057C000BCF5801FF7D58B4218BF704708BF8242D7
:1057D00070474FF4001C1CEB410F38BF1CEB430F0C
:1057E00001D28B42704770B500F0B2F892244900A4
:1057F0004FF000514FF08053FFF7DEBDDFF848C196
:1058000070B51CEA111E1EBF1CEA13159EEA0C0F90
:1058100095EA0C0F00F06F8081EA030423EA4C1331
:105820004EEAD47E21EA4C1141F4801143F48013F6
:10583000AE44A1FB024CA0FB0365AEF17F7E36199E
:1058400055EB0C05A1FB034C4CF10003A0FB021C23
:1058500016EB0C06654153F10003094218BF46F0F0
:10586000010613F4007F0BD14FEA03314FEA0530F4
:10587000340341EA155140EA16506FF003020AE082
:105880004FEAC3214FEAC520F40241EA555140EAEC
:1058900056506FF0020202EB2E4201EB025585EAF0
:1058A000CE710AD05FEA440C18BF24F0004450F1D6
:1058B000000041F1000120EAD47040F2FE7C624514
:1058C00000D270BDA84214BF4FF080444FF0404456
:1058D000002E08BF0024BEF1806FA8BFA1F1C04117
:1058E000BDE8704080F282804FF0000001F1C041BD
:1058F00001F0004170479EEA0C0F0CEA131518BF27
:1059000095EA0C0F06D04FF0000081EA030E0EF06E
:10591000004170BD00F01CF88900013E00F007B89E
:1059200000F009B84FEA430C5FEA5C5C08D081EAFA
:10593000030100F05BB84FEA410C5FEA5C5CF6D112
:105940004FF00000014970470000FF070000F87F9A
:105950000EF1020E2EF0030E5EF8046B364205D4F3
:10596000012A43EB030515F5001F12D8012841EB6E
:10597000010C1CF5001F0CD80ED14FEAD17C15F597
:10598000001F0CEB4C0C0CF1020C08BF4CEBD37C51
:1059900004E04FF0080C01E04FEAD37C0CEB4C051F
:1059A00026FA05F606F00706B6F1040C06D20EEB51
:1059B000860CBDE870404CF0010C6047DFE80CF04D
:1059C000090B02024FF000414FF00000A1F5002149
:1059D00070BD19461046012851EB010418BFD4F5DB
:1059E000001484BF002001F0004170BD0808A0F53C
:1059F00000114FEA3101704753EA010C17D41CF52E
:105A0000801F58BFBCF5801F00F106808B4218BF75
:105A1000704708BF8242704707D713F5801F58BFF1
:105A200011F5801F19D48B4270479B4270471CF5BB
:105A3000801F08D5BCF5801FF7D5994218BF704765
:105A400008BF904270474FF4001C1CEB430F38BF57
:105A50001CEB410F01D2994270470FB40CBC03BC40
:105A6000FFF7C1BE10B591EA030F48BF83F00043B2
:105A70003FF5FAAB841A71EB030C07D212198CF0C4
:105A8000004C43EB0C03001B61EB0C01DFF8A4E1BD
:105A90004FEA1154A4EB135C1EEA430F18BF9EEAB1
:105AA000445F00F0B08023EA6E03524221EA0451C1
:105AB000C3EB6E0338BF5B1EDCF1200E25D322FA48
:105AC0000CFE10EB0E0043FA0CFE41EB0E01CCF184
:105AD000200E03FA0EFE10EB0E0051F10001CCF186
